:020000040800F2
:1000000068E20020450100085D5800088D390008AD
:1000100059580008811A0008C58000080000000037
:10002000000000000000000000000000596E000801
:100030000D27000800000000F15800086D6F00084F
:100040005F0100085F0100085F010008D15E000841
:100050005F0100085F0100085F0100085F01000800
:100060005F0100085F0100085F0100085F010008F0
:100070005F0100085F0100085F0100085F010008E0
:100080005F0100085F0100085F0100085F010008D0
:100090005F0100085F0100085F0100085F010008C0
:1000A0005F0100085F0100085F0100085F010008B0
:1000B0005F0100085F010008AD7300085F010008E0
:1000C0005F0100085F0100085F0100085F01000890
:1000D0005F010008FD790008F17A0008457B0008FF
:1000E000D53100085F0100085F0100085F010008CA
:1000F0005F0100085F0100085F0100085F01000860
:100100005F0100085F010008C57300085F01000877
:100110005F0100085F010008DD7300085F0100084F
:100120005F0100085F0100085F0100085F0100082F
:10013000DFF80CD000F0D8FC0048004751950008CB
:1001400068E200200648804706480047FEE7FEE7D1
:10015000FEE7FEE7FEE7FEE7FEE7FEE7FEE7FEE777
:10016000AD6F00083101000840EA01039B0703D08E
:1001700009E008C9121F08C0042AFAD203E011F8E6
:10018000013B00F8013B521EF9D27047D2B201E0A8
:1001900000F8012B491EFBD270470022F6E710B58C
:1001A00013460A4604461946FFF7F0FF204610BDE5
:1001B00030B505462A460B4612F8010B13F8014BE1
:1001C00008B1A042F8D01CB1002802D06D1CF1E7A4
:1001D000284630BD10B5044604E00B7800F8013B1A
:1001E00003B1491C521EF8D2204610BDCAB2401EAF
:1001F00010F8011F8A4202D00029F9D1002070476F
:10020000421C10F8011B0029FBD1801A70470346DD
:1002100011F8012B00F8012B002AF9D1184670477C
:1002200030B505460020034600E05B1C934205D232
:10023000EC5CC85C201A01D1002CF6D130BD02461E
:10024000C9B200E0401C0378002BFBD102E0037828
:100250008B4203D0401E9042F9D200207047F0B488
:1002600080EA0102D40F4200B2EB410F02D20246F3
:10027000084611464A0042D0C30DDDB2C1F3C75251
:10028000AD1A202D35DAC1F3160141F4000204B194
:100290005242C5F1200602FA06F12A411044B3EB9E
:1002A000D05F23D0C4B1012DA0EBC35009DCF0BC5A
:1002B0004FF0004202EAC352DBB200F5000000F04A
:1002C0001FBB400000F1807000EBC350A0F18070B4
:1002D00040EAD170490009E0490841EAC071A0EB49
:1002E000C35000F50000400800EBC350F0BC00F024
:1002F000FEBA6142012202EB4101001BF6E7F0BCAD
:10030000704781F00041AAE780F00040A7E780EA4B
:10031000010210B502F00043400022D04A001FD075
:10032000010E01EB1261C0F35600C2F3560240F415
:10033000000042F40002A0FB022000047F391404F4
:1003400000D0401C50EA124001D44000491EC2B205
:100350000C0604EBD010401C4008802A02D003E0B9
:10036000002010BD20F00100002900DA0020184311
:1003700010BD30B480EA010202F0004530F00042C6
:1003800021F0004013D090B1C30DD40DC2F316017B
:10039000C0F31600E41A41F4000140F400027D3479
:1003A000914201D3641C00E04900002C02DA30BC09
:1003B000002070474FF400000023914201D3891AB6
:1003C000034340084FEA4101F7D151B1914202D1B4
:1003D0004FF0004105E002D24FF0010101E06FF063
:1003E000010103EBC450284430BC00F080BA2DE971
:1003F000FE4F804681EA0300C00F0C46009021F0BA
:10040000004123F00045B8EB0200A94105D2404667
:10041000214690461C460B46024623F000401043FE
:1004200047D0270DC7F30A00C3F30A510290401AC0
:10043000019040286BDAC3F3130040F4801B00984E
:10044000924620B10023D2EB030A63EB0B0B019819
:100450005946C0F14002504600F018FA06460D46D3
:1004600050465946019A00F030FA10EB08006141FD
:10047000002487EA115284EAE7731A4340D0009AB5
:1004800062B3019A012A4FEA075215DC001B61EBA7
:1004900002014FF0004202EA0752CDE90042001C7F
:1004A00041F5801132462B4600F067FA03B0BDE8F3
:1004B000F08F40462146F9E7001B61EB0201001C6A
:1004C00041F5801300185B412018A2F5001747EB97
:1004D000030140EAD570B6196D4111E06D084FEA8D
:1004E000360645EAC0754FEA0752001B61EB020170
:1004F000001C41F5801149084FEA300000195141B4
:1005000032462B4603B0BDE8F04F00F027BA009802
:10051000012240000023D0EB020263EBE07300985D
:1005200021464FEAE074B8EB000061EB0401E9E713
:1005300083F000435BE781F0004158E72DE9FE4F6F
:1005400081EA030404F0004421F0004100944FF0DC
:10055000000B23F0004350EA01045ED052EA03048A
:100560005BD0C3F30A54C1F30A552C44A4F2F3340C
:100570000194A0FB0254C1F3130141F48011C3F3B1
:10058000130343F4801301FB024400FB034E840A6F
:10059000970A44EA815447EA8357A4FB0768029507
:1005A0008D0A05FB07854FEA932C04FB0C542705A5
:1005B000029D4FEA065847EA1637B5EB08056EEB81
:1005C000070C870E920E47EA811742EA8312A7FBB7
:1005D0000201B6EB0B0164EB00042B0D43EA0C3374
:1005E0005E1844EB1C50DA465146E7FB0201C5F3A6
:1005F00013044FEA0B3343EA14534FEA0432019CCD
:1006000043EA0603A4F10C040294009CCDE900B473
:1006100000F0B3F903B0BDE8F08F00200146F9E720
:100620002DE9F04D81EA030404F0004B21F0004570
:1006300014464FF0000A23F0004150EA050220D092
:1006400054EA01021DD0C5F30A570246C5F313034D
:10065000C1F31300C1F30A5640F4801543F480132C
:10066000A7EB0608101BD64608F2FD3873EB050011
:1006700002D308F1010801E092185B41B8F1000FC4
:1006800003DA00200146BDE8F08D00204FF4801110
:10069000064684460EE0171B73EB050705D3121BB5
:1006A00063EB050306434CEA010C49084FEA3000AE
:1006B00092185B4150EA0107EDD152EA030012D0D3
:1006C00082EA040083EA0501084305D0101BAB4110
:1006D00006D20122002306E000224FF0004302E090
:1006E0006FF0010253101AEB06004CEB085110EBAF
:1006F0000A0041EB0B01BDE8F04D00F02FB9C10F2E
:1007000080EAE0700844CA079623002100F0F8B898
:1007100096230022114600F0F3B80EB540F23341A3
:1007200002910021CDE900110A460B4600F025F99F
:1007300003B000BD00F0004220F00040C10DC0F346
:10074000160040F400007F2901DA00207047962946
:1007500003DCC1F19601C84001E096398840002AC7
:10076000F4D04042704720F00040C10DC0F31600A5
:1007700040F400007F2901DA00207047962903DC4D
:10078000C1F19601C840704796398840704770B5EE
:10079000C1F30A5201F000450024C1F3130140F2F5
:1007A000FF3341F480119A4201DA002070BD40F21B
:1007B00033439A42A2F2334203DC524200F075F80E
:1007C00000E090402C43F1D0404270BD00F0004268
:1007D00030F000400AD0C10D01F56071C0F3160081
:1007E00042EA0151C2084007114370470020014608
:1007F000704701F0004330B421F0004150EA01029B
:1008000006D00A0DA2F56072C1F31301002A02DCC2
:1008100030BC00207047440F44EAC104C100E01816
:1008200030BC00EBC25000F062B82DE9F05F054625
:10083000002092469B4688460646814640241BE09F
:10084000284641464746224600F02FF853465A466E
:10085000C01A914110D311461846224600F016F8EE
:100860002D1A67EB01084F4622460120002100F0B7
:100870000DF817EB00094E41201EA4F10104DFDC46
:10088000484631462A464346BDE8F09F202A04DB0D
:10089000203A00FA02F1002070479140C2F1200393
:1008A00020FA03F3194390407047202A04DB203AD2
:1008B00021FA02F00021704721FA02F3D040C2F180
:1008C00020029140084319467047202A06DBCB17C7
:1008D000203A41FA02F043EAE07306E041FA02F3FB
:1008E000D040C2F1200291400843194670470029C8
:1008F000A8BF7047401C490008BF20F001007047A6
:1009000010B4B0FA80FC00FA0CF050EA010404BF05
:1009100010BC704749B1CCF1200421FA04F411FA5B
:100920000CF118BF012121430843A3EB0C01CB1D9F
:100930004FEA00614FEA102042BF002010BC704710
:1009400000EBC35010440029A4BF10BC7047401CEA
:10095000490008BF20F0010010BC704710B5141EFC
:1009600073F1000408DA401C41F1000192185B4168
:100970001A4301D120F0010010BD2DE9F04D92463F
:100980009B4611B1B1FA81F202E0B0FA80F2203256
:100990009046FFF77BFF04460F4640EA0A0041EA13
:1009A0000B0153465A46084313D0114653EA01003F
:1009B00019D0C8F140025046FFF777FF05460E46B2
:1009C000504659464246FFF761FF084305D00120D3
:1009D00004E020463946BDE8F08D0020054346EA94
:1009E000E0762C4337430A986305E40AA0EB08003D
:1009F0000022FD0A44EA47540A3002D5002001468D
:100A0000E9E7010510196941DDE908450019694167
:100A1000BDE8F04DA2E770B521F0004303430CD0D0
:100A2000C1F30A550024D5EB040564EB0403D61783
:100A3000AD1AB34102DB0020014670BD201841EB26
:100A4000025170BD2DE9F04D00231A461B1A8A4150
:100A500003DB00200146BDE8F08DC1F30A52C1F36B
:100A6000130141F480154FF0000BD10702D100189B
:100A70006D41521E0027044640F2FF11384601EB3B
:100A8000620A3E468046024600204FF48011FFF77E
:100A90000CFFC2197141BB1846EB0100B4EB030C0B
:100AA00075EB000C04D3E41A65EB000517460E46FF
:100AB000241908F101006D4180463428E3DDF9195D
:100AC00046EB0600091BA84103D24FF0FF32134644
:100AD00001E0002213461BEB070046EB0A51BDE87C
:100AE000F04DFFF73BBF0000064C074D06E0E06805
:100AF00040F0010394E8070098471034AC42F6D365
:100B0000FFF71AFBB07F0208D07F020870B58D187E
:100B100010F8014B14F0030201D110F8012B23113E
:100B200006D110F8013B03E010F8016B01F8016BEE
:100B3000521EF9D1ABB110F8012B04F00C048A1A43
:100B40000C2C03D0A2EB84129B1C08E010F8014B84
:100B5000A2EB0422F8E712F8014B01F8014B5B1EEF
:100B6000F9D5A942D4D3002070BD21B1826842F0EA
:100B70000102826003E0826822F001028260704715
:100B8000014600208A6802F004020AB1012000E058
:100B9000002070470146C86C80B2704702460020B2
:100BA00013680B400BB1012000E0002070470146A4
:100BB00000208A6802F008020AB1012000E000204B
:100BC0007047000030B502460020002350680F4CEB
:100BD00020400D790C6844EA052420435060906859
:100BE0000B4C2040D1E902542C434D7944EA450492
:100BF00020439060D06A20F470000C7C641EE4B244
:100C0000234340EA0350D06230BD0000FFFEF0FFF6
:100C1000FDF7F1FFF0B504460D4600200021092D37
:100C200011DDE068A5F10A0606EB4607072606FA7D
:100C300007F18843A5F10A0606EB460603FA06F11A
:100C40000843E0600CE0206905EB4507072606FA3B
:100C500007F1884305EB450603FA06F108432061D6
:100C6000072A0FDA606B561E06EB86071F2606FA68
:100C700007F18843561E06EB860605FA06F108437F
:100C8000606322E00D2A0FDA206BD61F06EB860781
:100C90001F2606FA07F18843D61F06EB860605FADB
:100CA00006F10843206310E0E06AA2F10D0606EBAE
:100CB00086071F2606FA07F18843A2F10D0606EB08
:100CC000860605FA06F10843E062F0BD816841F04E
:100CD00008018160704721B1826842F4A0028260FD
:100CE00003E0826822F4A00282607047816841F0CC
:100CF000040181607047000030B10749096841F480
:100D00000001054A116005E00349096821F400016A
:100D1000014A1160704700000824014000B585B009
:100D20000121480204F012FE4FF4004004F0E2FDFD
:100D30000120FFF7E1FF002000908DF804008DF8FE
:100D400005004FF4602002900020039001208DF8F0
:100D5000100069460F48FFF735FF01210D48FFF7E6
:100D600004FF0C48FFF7B2FF00BF0A48FFF71FFF60
:100D70000028FAD10748FFF7B9FF00BF0548FFF781
:100D8000FFFE0028FAD101210248FFF7A4FF05B0B9
:100D900000BD0000002401402DE9FE4F002101208C
:100DA00005F01AF9002003F00DFB00F0C9F84FF62A
:100DB000E0704C4908804CA20A21084604F0F6FA7B
:100DC0004B484C4A009052881E3A91B2494A1288C8
:100DD000283A90B21E23282204F0ACFB46A232210E
:100DE0000A2004F0E3FA4EA250210A2004F0DEFAB1
:100DF00074E00A21012002F087FD82465046FFF789
:100E000087FC0090FFF7E2FC06464FF06632484B45
:100E1000FFF794FB04460022464BFFF701FC804697
:100E2000FFF7E7FC834644495846FFF770FA04464B
:100E3000FFF799FC1FFA80FA64209AFBF0F030303B
:100E4000C0B28DF804002E208DF8050064209AFBB6
:100E5000F0F100FB11A00A2190FBF1F03030C0B29C
:100E60008DF8060064209AFBF0F100FB11A00A2126
:100E700090FBF1F201FB12003030C0B28DF8070098
:100E800056208DF8080000208DF8090001AA502195
:100E90006B2004F08BFA294881881648008828388E
:100EA000814219DD2548808812490988884213DA71
:100EB0002248C1880F4840881E3881420CDD1F48F7
:100EC000C0880C494988884206DA03F09FFA01215C
:100ED000084605F081F802E006F030FD89E700BF22
:100EE000BDE8FE8F14000020414443B2E2CAD400A2
:100EF000F45C020818000020B5F7BDDA414443C491
:100F0000A3BFE9C4DAB5C4B5E7CEBBC6F7BFC9D243
:100F1000D4B8C4B1E4BCECB2E2B5E7D1B90000008A
:100F20004144BCECB2E2D6B5CAC7A3BA0000000087
:100F300066660A400000B0400000C8422C00002055
:100F400000B587B001214FF4017004F0FFFC4FF4AD
:100F5000004004F0CFFC0220ADF8180000208DF80E
:100F60001B0003208DF81A0006A9184802F008FC9F
:100F7000002001908DF808008DF809004FF46020E2
:100F800003900020049001208DF8140001A910485E
:100F9000FFF718FE01210E48FFF7E7FD0C48FFF7A9
:100FA00095FE00BF0A48FFF702FE0028FAD1084864
:100FB000FFF79CFE00BF0648FFF7E2FD0028FAD1CC
:100FC00001210348FFF787FE07B000BD000801407C
:100FD000002401402DE9F04786B00021012004F0F3
:100FE000FBFF002003F0EEF900F076FA4FF6E07018
:100FF0008049088080A20A21084604F0D7F9844875
:10100000844A009052881E3A91B2824A1288283A45
:1010100090B21E23282204F08DFA7FA01021CDE982
:1010200000107C48438802885A210A2004F0B0FA54
:101030007EA01021CDE900107648438802887821EF
:101040000A2004F0A5FA7BA01021CDE90010714818
:10105000438802888C210A2004F09AFA77A0102194
:10106000CDE900106B4843880288A0210A2004F0D3
:101070008FFA74A01021CDE90010664843880288D9
:10108000B4210A2004F084FA70A01021CDE90010E8
:10109000604843880288C8210A2004F079FA6DA0CC
:1010A0001021CDE900105B4843880288DC210A202A
:1010B00004F06EFA99E00A2303AA04A905A800F037
:1010C000D0FA0023BDF9142078213C2000F022FB47
:1010D0000023BDF910208C213C2000F01BFB0023D5
:1010E000BDF90C20A0213C2000F014FBBDF90C0040
:1010F000FFF705FB8046BDF91000FFF700FB8146B6
:10110000BDF91400FFF7FBFA824601234246494627
:1011100000F024F90546BDF90C00FFF7F0FA80460F
:10112000BDF91000FFF7EBFA8146BDF91400FFF797
:10113000E6FA824602234246494600F00FF9064687
:10114000BDF90C00FFF7DBFA8046BDF91000FFF790
:10115000D6FA8146BDF91400FFF7D1FA8246002382
:101160004246494600F0FAF8074601232A46B421D0
:101170003C2000F0CFFA01233246C8213C2000F089
:10118000C9FA01233A46DC213C2000F0C3FA0020D2
:1011900002F0FCFF0446012C04D103AA04A905A80F
:1011A00000F05EF82D4881881A480088283881426E
:1011B00019DD2A48808817490988884213DA2748A8
:1011C000C188144840881E3881420CDD2348C088FD
:1011D00010494988884206DA03F018F901210846C7
:1011E00004F0FAFE02E006F0A9FB64E700BF06B0D7
:1011F000BDE8F087140000204144583334354CBC1E
:10120000D3CBD9B6C8B4ABB8D0C6F7B2E2CAD40013
:10121000F45C0208180000204B5F55503A414458D6
:101220004C3334352041646A75737400582056611C
:101230006C3A0000592056616C3A00005A20566101
:101240006C3A00005820416E673A00005920416E08
:10125000673A00005A20416E673A00002C000020D7
:101260002DE9FE4F04460D4616460027B846B946FE
:1012700000212D2000F036FA642007F0C7FB2B2157
:10128000312000F02FFA0A212C2000F02BFA28211F
:101290002D2000F027FA00212E2000F023FA002153
:1012A0001E2000F01FFA00211F2000F01BFA002171
:1012B000202000F017FA0C2007F0A8FBBA4616E031
:1012C0006A4601A902A800F02FF9BDF808003844C9
:1012D00007B2BDF8040040440FFA80F8BDF80000E2
:1012E00048440FFA80F90AF1010000F0FF0ABAF150
:1012F0000A0FE5DB0A2097FBF0F007B20A2098FB03
:10130000F0F00FFA80F80A2099FBF0F00FFA80F95C
:101310007842C11700EB9171C1F387012170C8F1C8
:101320000000C11700EB9171C1F387012970C9F565
:101330008070C11700EB9171C1F387013170217882
:101340001E2000F0CFF929781F2000F0CBF931786A
:10135000202000F0C7F9BDE8FE8F00002DE9F04F16
:1013600089B00646894615469A4600200890BAF18B
:10137000000F06D0BAF1010F32D0BAF1020F2ED110
:101380005EE02846FFF722FACDE9060149464846C5
:10139000FEF7BDFF314601903046FEF7B8FF0090E2
:1013A0000199FEF75CFF8346FFF710FACDE90201D1
:1013B00008F085FFCDE90401DDE90623FFF730F9E8
:1013C0000746FFF716FA04462046FFF7FFF9CDE976
:1013D000060107F07DF90746FFF70BFA08905FE07A
:1013E00029462846FEF793FF494601904846FEF7F6
:1013F0008EFF00900199FEF732FF8346FFF7E6F972
:10140000CDE9020108F05BFF074688463046FFF74A
:10141000DDF93A464346CDE90401FFF701F9CDE98C
:101420000601FFF7E6F904462046FFF7CFF9CDE9BC
:10143000060107F04DF90746FFF7DBF908902FE0AA
:1014400029462846FEF763FF314601903046FEF7F5
:101450005EFF00900199FEF702FF8346FFF7B6F9A1
:10146000CDE9020108F02BFF074688464846FFF702
:10147000ADF93A464346CDE90401FFF7D1F8CDE98D
:101480000601FFF7B6F904462046FFF79FF9CDE9BC
:10149000060107F01DF90746FFF7ABF9089000BFFA
:1014A00000BF0A490898FEF732FF8346FFF78EF91E
:1014B0000746074A074BFFF7B3F8CDE90601FFF7E8
:1014C00066F900B209B0BDE8F08F000000003443B7
:1014D0001F85EB51B81E094010B502F0AFFA00208D
:1014E00000F057F8E5281DD12B21312000F0FAF843
:1014F0000A212C2000F0F6F828212D2000F0F2F827
:1015000000212E2000F0EEF800211E2000F0EAF865
:1015100000211F2000F0E6F80021202000F0E2F872
:10152000002010BD0120FCE72DE9F04704460D46E0
:1015300016460027B846B946BA4616E0324629464E
:10154000204600F047F80A2007F060FA2088384467
:1015500007B2288840440FFA80F8308848440FFAD0
:1015600080F90AF1010000F0FF0ABAF10A0FE5DB89
:101570000A2097FBF0F000B220800A2098FBF0F0E0
:1015800000B228800A2099FBF0F000B23080BDE85C
:10159000F08770B50446002502F0F2FA3A2002F016
:1015A000BDFA02F025FB0546204602F0B7FA02F02C
:1015B0001FFB054602F0E4FA3B2002F0AFFA02F00E
:1015C00017FB0546002002F07DFA054602F0F4FA0A
:1015D000284670BD2DE9FC4105460E46174602F02F
:1015E000CFFA3A2002F09AFA02F002FB322002F01F
:1015F00095FA02F0FDFA02F0C3FA3B2002F08EFAEF
:1016000002F0F6FA00240EE0052C05D1002002F0CD
:1016100059FA0DF8040004E0012002F053FA0DF825
:101620000400601CC4B2062CEEDB02F0C5FA9DF883
:1016300000009DF8011000EB012000B228809DF809
:1016400002009DF8031000EB012000B230809DF8ED
:1016500004009DF8051000EB012000B23880BDE8C1
:10166000FC812DE9FE4304460D4616461F46002028
:101670002080288030809FB380461DE06A4601A903
:1016800002A8FFF7A7FF2088BDF80810084400B2A1
:1016900020802888BDF80410084400B228803088D3
:1016A000BDF80010084400B23080052007F0AEF904
:1016B00008F1010000F0FF08B845DFDBB4F90000D5
:1016C00090FBF7F000B22080B5F9000090FBF7F036
:1016D00000B22880B6F9000090FBF7F000B230802D
:1016E000BDE8FE8370B505460C4602F049FA3A2083
:1016F00002F014FA02F07CFA284602F00FFA02F027
:1017000077FA204602F00AFA02F072FA02F054FA6E
:1017100070BD0000FEB505460F4614461E46002E5D
:1017200049D1002C0DDA604204B241A01021CDE96C
:1017300000104048438802883946284603F028FFB5
:101740000AE03DA01021CDE900103A484388028804
:101750003946284603F01CFF642094FBF0F030303B
:10176000C0B28DF80800642094FBF0F100FB11403A
:101770000A2190FBF1F03030C0B28DF809006420EE
:1017800094FBF0F100FB11400A2190FBF1F201FB08
:1017900012003030C0B28DF80A0002A81021CDE945
:1017A000001024494B880A8805F10A0188B239469D
:1017B00003F0EEFE3AE0002C0DDA604204B21CA009
:1017C0001021CDE900101B4843880288394628467D
:1017D00003F0DEFE0AE018A01021CDE90010154844
:1017E000438802883946284603F0D2FE0A2094FB3B
:1017F000F0F03030C0B28DF808002E208DF80900CE
:101800000A2094FBF0F100FB11403030C0B28DF89B
:101810000A0002A81021CDE9001006494B880A8869
:1018200005F10A0188B2394603F0B2FEFEBD0000A0
:101830002D000000180000202000000010B502F06C
:10184000FDF810BD70B506460C46154608E030465A
:10185000721C96B200F007F804F8010B681E85B2FE
:10186000002DF4D170BD70B50446002602F088F951
:101870002546E11704EB11610912A02202EB410198
:10188000C8B202F04BF902F0B3F9E11704EB1161B1
:101890000912A4EB0121C8B202F040F902F0A8F944
:1018A00002F06EF9A12002F039F902F0A1F900204E
:1018B00002F008F9064602F07FF9304670BD70B5B7
:1018C00005460C46164606E02178284600F009F841
:1018D000681C85B2641C3000A6F101018EB2F3D100
:1018E00070BD70B504460E4602F04AF92546E11770
:1018F00004EB11610912A02202EB4101C8B202F00F
:101900000DF902F075F9E11704EB11610912A4EB6E
:101910000121C8B202F002F902F06AF9304602F081
:10192000FDF802F065F902F047F90A2007F06EF8B9
:1019300070BD000008B50121082004F007F8202040
:10194000ADF8000010208DF8030003208DF8020090
:101950006946024801F014FF08BD0000000C014078
:1019600008B50021012004F037FB002002F02AFD19
:10197000FFF7E0FF4FF6E0702649088026A20A2113
:10198000084603F013FD2748274A009052881E3A64
:1019900091B2254A1288283A90B21E23282203F0D9
:1019A000C9FD33E02021214801F080FF012007F02C
:1019B0002DF820211D4801F077FF012007F026F8BF
:1019C0001B48818818480088283881421CDD184847
:1019D000808815490988884216DA1548C188124856
:1019E00040881E3881420FDD1148C0880E49498861
:1019F000884209DA00200F49086002F007FD012142
:101A0000084604F0E9FA02E005F098FFCAE700BFD3
:101A100008BD000014000020B7E4C3F9C6F7B2E225
:101A2000CAD40000F45C020818000020000C014039
:101A30002C0000209481214210B5012003F096FF74
:101A4000002003F093FF10BD08B501460020009070
:101A5000034800900098084400900098008808BD52
:101A6000006C004008B500220092044A0092009ADF
:101A700002440092009A116008BD0000006C004012
:101A800000BFFEE710B50021837A012202FA03F1BC
:101A90003D4A126842F001023B4B1A603A4A1C323E
:101AA00012688A43384B1C331A60027BCAB9364A23
:101AB0000C3212688A43344B0C331A604288C38854
:101AC00042EA0343304A4032847A42F83430028892
:101AD000838842EA03432C4A4032847A02EBC402F0
:101AE0005360027B012A19D1274A0C3212680A433B
:101AF000254B0C331A604288038842EA0343224A8A
:101B00004032847A42F83430C288838842EA034300
:101B10001D4A4032847A02EBC4025360C27A3AB959
:101B2000194A121D12688A43174B1B1D1A6006E0E2
:101B3000154A121D12680A43134B1B1D1A600289B5
:101B400032B9114A143212688A430F4B14331A60A7
:101B50000289012A06D10C4A143212680A430A4B40
:101B600014331A60427B012A06D1074A1C321268DC
:101B70000A43054B1C331A60034A126822F0010223
:101B8000014B1A6010BD00000066004030B50246EF
:101B900000200023146824F002041460146844F048
:101BA0000104146000E05B1C546804F001041CB9DB
:101BB0004FF6FF74A342F6D1546804F001040CB947
:101BC00000206CE08C79012C04D1146844F080046E
:101BD000146003E0146824F080041460CC79012CB4
:101BE00004D1146844F04004146003E0146824F045
:101BF000400414600C7A012C04D1146844F02004D1
:101C0000146003E0146824F0200414604C7A012C62
:101C100004D1146844F01004146003E0146824F044
:101C2000100414608C7A012C04D1146844F0080468
:101C3000146003E0146824F008041460CC7A012CCA
:101C400004D1146844F00404146003E0146824F020
:101C5000040414608C78A407CD7844EA05640D79F7
:101C600044EA05444D7944EA05540D886D1E2C4321
:101C7000D461146824F001041460002300E05B1CAC
:101C8000546804F001041CB14FF6FF74A342F6D16E
:101C9000546804F001040CB1002000E0012030BDC4
:101CA0000246002019B9D36803F0030006E00129B9
:101CB00003D1136903F0030000E000207047000027
:101CC0002DE9F04188B004460D4616461F46DDF862
:101CD00038800121480603F029FE0121042003F089
:101CE00035FE4FF40060ADF81C0048208DF81F0051
:101CF00007A9254801F044FD4FF48050ADF81C00C1
:101D000018208DF81F0003208DF81E0007A91E481B
:101D100001F036FD00208DF816008DF817008DF8C3
:101D2000180001208DF8190000208DF81A008DF898
:101D30001B008DF812808DF813408DF814608DF81B
:101D40001550ADF8107004A91048FFF71FFF0020D0
:101D50008DF80A008DF80B0001208DF80C00002092
:101D6000ADF80000ADF80200ADF80400ADF80600D3
:101D7000ADF8080001208DF80D006846FFF782FEDF
:101D800008B0BDE8F0810000000801400064004098
:101D900010B500F5D87303EB01131B6803F00403BF
:101DA0001372137A53B900F5D87303EB01131B6850
:101DB00040F2FF7404EA5353136009E000F5D8734E
:101DC00003EB01131B686FF0604404EAD303536014
:101DD00000F5D87303EB01131B6803F00203537281
:101DE00000F5D87303EB01135B6803F00F039372E4
:101DF00000F5D87303EB01135B681B0AD37400F57D
:101E0000D87303EB01139B68D37200F5D87303EB0F
:101E100001139B681C0A147300F5D87303EB0113BC
:101E20009B681C0C547300F5D87303EB01139B687B
:101E30001B0E937300F5D87303EB0113DB68D373A8
:101E400000F5D87303EB0113DB681C0A147400F56A
:101E5000D87303EB0113DB681C0C547400F5D873C2
:101E600003EB0113DB681B0E937421B9C36843F0C5
:101E70002003C36003E0036943F02003036110BD46
:101E800030B585B0054600210C48FFF709FF10B9B1
:101E9000002005B030BD6A4600210848FFF778FFF2
:101EA000002404E00DF10B00005D2855641C9DF832
:101EB0000A00A042F6D89DF80A00EAE70064004054
:101EC000F0B585B007460D46002412200090019021
:101ED00000208DF808008DF809008DF80A5000BF29
:101EE00005E0395D0DF10B000155601C84B2AC4278
:101EF000F7DB69460C4800F03DF90646002401E096
:101F0000601C84B23146084800F0C8F918B940F6A0
:101F1000FF708442F4DB40F6FF70844202DB012054
:101F200005B0F0BD0020FBE700640040F0B587B0CD
:101F3000002400260021012004F04EF8002002F0C9
:101F400041FA4FF6E0706149088061A20A21084613
:101F500003F02CFA60A232210A2003F027FA67A2CC
:101F600064210A2003F022FA6BA296210A2003F0D2
:101F70001DFA6BA2B4210A2003F018FA6AA2D2213A
:101F80000A2003F013FA6A486A4A009052881E3AFF
:101F900091B2684A1288283A90B21E23282203F090
:101FA000C9FA002006231A4605210090FFF788FE93
:101FB00087E0002002F0EAF80546012D25D106B998
:101FC00000E00020064606231A4605210020009660
:101FD000FFF776FE2EB958A29621322003F0E6F9DB
:101FE00004E058A29621322003F0E0F958A2B4216F
:101FF000322003F0DBF956A2D221322003F0D6F9C9
:1020000057A2B421C82003F0D1F9022D21D1002418
:1020100007E005A80455005D303003A90855601C91
:10202000C4B2082CF5DB082105A8FFF749FF0746D5
:102030002FB14DA2B421C82003F0B8F909E048A29D
:10204000B421C82003F0B2F903AAB421322003F06E
:10205000ADF901A8FFF714FF07467FB1002406E0A1
:1020600001A8005D303003A90855601CC4B2BC4211
:10207000F6DB03AAD221322003F098F93C4881888C
:102080002C4800882838814219DD39488088294940
:102090000988884213DA3648C188264840881E38A5
:1020A00081420CDD3248C08822494988884206DADC
:1020B00002F0ACF90121084603F08EFF02E005F0C2
:1020C0003DFC76E700BF07B0F0BD00001400002023
:1020D00043414EB2E2CAD400D7A2D2E2A3BABDAB0A
:1020E00043414EC4A3BFE9B5C4503136B6CBD7D3B4
:1020F000B6CCBDD3B5BD43414EB6CB004B5F5550BA
:10210000A3BAC4A3CABD20204B5F444F574EA3BA05
:10211000B7A2CBCD00000000C4A3CABDA3BA000083
:10212000B7A2CBCDA3BA0000BDD3CAD5A3BA0000D5
:10213000F45C020818000020D5FDB3A3C4A3CABDF7
:1021400000000000BBD8BBB7C4A3CABD000000009C
:10215000202020202020202020202020202020009F
:102160002020202000000000CAA7B0DC00000000F2
:102170002C00002010B502460020936803F0806315
:10218000B3F1806F00D110E0936803F00063B3F106
:10219000006F01D1012008E0936803F08053B3F190
:1021A000805F01D1022000E00420042874D002F5F1
:1021B000C07303EB00131B6803F0010402F5C07346
:1021C00003EB00131C600B7A7BB94B7A0C8843EA53
:1021D000445302F5C07404EB00142468234302F551
:1021E000C07404EB0014236010E00B7A4C6843EADF
:1021F000C4034C7A234302F5C07404EB0014246832
:10220000234302F5C07404EB001423608B7A03F0BF
:102210000F038B7202F5C07303EB00135B6823F0AE
:102220000F0402F5C07303EB00135C6002F5C0738A
:1022300003EB00135B688C7A234302F5C07404EB54
:10224000001463608B7B1C064B7B44EA03440B7BCE
:1022500044EA0323CC7A234302F5C07404EB001450
:10226000A3608B7C1C064B7C44EA03440B7C44EA51
:102270000323CC7B234302F5C07404EB0014E3601A
:1022800002F5C07303EB00131B6843F0010402F571
:10229000C07303EB00131C6010BD000010B50246B4
:1022A000002321B1012907D002290FD109E090684C
:1022B0001D4C00EA04030BE090681C4C00EA040388
:1022C00006E090681A4C00EA040301E0002300BF16
:1022D00000BF184C181BA34216D007DC83B16FF067
:1022E0008060184470B1022818D111E0B0F5007F69
:1022F00010D0114C204448B1B0F5003F0ED10BE096
:1023000002230DE000230BE0002309E0002307E097
:10231000012305E0012303E0012301E0002300BFC6
:1023200000BFD8B210BD0000030000040003000885
:1023300000000310000100080001FFF710B50024A1
:1023400000F064F804E0601CC4B2012006F084FBD5
:102350000D48006808B1C82CF5DBC82C01DB012052
:1023600010BD002404E0601CC4B2012006F074FB20
:102370000548006808B9F02CF5DBF02C01DB0120E2
:10238000EEE70020ECE700002C0124422DE9F05F8D
:1023900000F0C2F800F0AAF8FFF7D0FFCC2000F060
:1023A00087F9BE2000F084F900F08EF8834600F033
:1023B0008BF8824654460BEB042084B204F4784038
:1023C000B0F5784F0FD1E043401C84B22046FEF7B1
:1023D000A4F9074600220B4BFEF7B0F80546FEF7BE
:1023E00008FA81460BE02046FEF797F905460022E1
:1023F000054BFEF7A3F80746FEF7FBF98146484672
:10240000BDE8F09F0000B0BF0000B03F08B54FF43A
:102410000060ADF8000048208DF8030069460248CE
:1024200001F0AEF908BD00000020014008B54FF4EE
:102430000060ADF8000003208DF8020010208DF838
:1024400003006946014801F09BF908BD00200140E6
:1024500008B50121080203F079FA4FF40060ADF8E5
:10246000000003208DF8020010208DF8030069465B
:10247000034801F085F900F039F8FFF75FFF08BD68
:102480000020014010B5FFF7D1FF00200C49086083
:10249000022006F0E1FA01200A49C1F8AC01FFF779
:1024A000B5FF0C2006F0D8FA05488038006808B15E
:1024B000012400E00024322006F0CEFA204610BDB0
:1024C000AC0124420000244270B50026012508E03A
:1024D000FFF7D8FF0446E00140EA6600C6B2681C78
:1024E000C5B2082DF4DD304670BD000010B5FFF711
:1024F0009DFF00200649086040F2EE2006F0ACFA8D
:1025000001200449C1F8AC010F2006F0A5FA10BD66
:10251000AC0124420000244210B5FFF7E7FFFFF7AB
:102520000DFFCC2000F0C4F8442000F0C1F810BD2D
:10253000FEB50021012003F04FFD002001F042FF15
:10254000FFF786FF4FF6E0704C4908804CA20A2145
:10255000084602F02BFF4D484D4A009052881E3A23
:1025600091B24B4A1288283A90B21E23282202F0D8
:10257000E1FF48A232210A2002F018FF494A6421F3
:102580000A2002F013FF76E0FFF700FF05464649F8
:102590002846FDF7BCFE0646FEF7E5F884B24FF488
:1025A0007A7094FBF0F03030C0B28DF804004FF434
:1025B0007A7094FBF0F100FB1140642190FBF1F084
:1025C0003030C0B28DF805002E208DF806004FF493
:1025D0007A7094FBF0F100FB1140642190FBF1F262
:1025E00001FB12000A2190FBF1F03030C0B28DF8EF
:1025F00007004FF47A7094FBF0F100FB1140642166
:1026000090FBF1F201FB12000A2190FBF1F201FBB9
:1026100012003030C0B28DF8080043208DF8090058
:1026200000208DF80A0001AA3221782002F0BEFEB7
:102630001E488188164800882838814219DD1B48C9
:10264000808813490988884213DA1848C1881048DD
:1026500040881E3881420CDD1448C0880C494988E6
:10266000884206DA01F0D2FE0121084603F0B4FCEC
:1026700002E005F063F987E700BFFEBD140000200B
:1026800044533138423230B2E2CAD400F45C02081A
:1026900018000020BCECB2E2CEC2B6C8D6B5A3BAD0
:1026A00000000000C87C02080000C8422C00002086
:1026B00070B50446FFF7BAFE012520E004F00106DC
:1026C00064106EB100200F490860022006F0C4F9C2
:1026D00001200D49C1F8AC013C2006F0BDF90CE029
:1026E0000020084908603C2006F0B6F901200649A0
:1026F000C1F8AC01022006F0AFF9681CC5B2082D84
:10270000DCDD70BDAC0124420000244270470000B3
:1027100070B586B000250021012003F05DFC00208B
:1027200001F050FEFFF78AF84FF6E0705D4908802F
:102730005DA20A21084602F039FE5E485E4A00901A
:1027400052881E3A91B25C4A1288283A90B21E23EF
:10275000282202F0EFFE59A22C210A2002F026FEC8
:102760005DA23D210A2002F021FE62A264210A201E
:1027700002F01CFE65A296210A2002F017FE67A255
:10278000A7210A2002F012FE87E0002001F0FEFCE3
:102790000446012C2FD1681CC0B20546014600201A
:1027A000FFF79FF8642095FBF0F03030C0B28DF851
:1027B0001000642095FBF0F100FB11500A2190FB02
:1027C000F1F03030C0B28DF81100642095FBF0F1CB
:1027D00000FB11500A2190FBF1F201FB1200303096
:1027E000C0B28DF8120000208DF8130004AA9621C3
:1027F000A02002F0DBFD022C2CD10020FFF733F8E3
:102800000646642096FBF0F03030C0B28DF8080028
:10281000642096FBF0F100FB11600A2190FBF1F0BF
:102820003030C0B28DF80900642096FBF0F100FB57
:1028300011600A2190FBF1F201FB12003030C0B2AE
:102840008DF80A0000208DF80B0002AAA721A02015
:1028500002F0ACFD3548818817480088283881424D
:1028600019DD3248808814490988884213DA2F48D4
:10287000C188114840881E3881420CDD2B48C08831
:102880000D494988884206DA01F0C0FD0121084659
:1028900003F0A2FB02E005F051F876E700BF06B0B6
:1028A00070BD000014000020454550524F4DB2E26B
:1028B000CAD40000F45C020818000020B0B44B5FDA
:1028C0005550BCFC3AB6D441543234433032D0B4C3
:1028D000CAFDBEDD00000000B0B44B5F444F574D51
:1028E000BCFC3AB6D441543234433032B6C1CAFD8E
:1028F000BEDD0000D0B4CAFDBEDDB5C4B7B6CEA7FC
:10290000CAC73A20302D323535000000577269743D
:102910006520646174612069733A000052656164E6
:1029200020646174612069733A0000002C0000206B
:1029300010B50446214610A005F0C6FB240300F0A4
:1029400043F900F0DBF800200D490860202004F076
:1029500069F9C4F3074004F065F9C4F3072004F0F3
:1029600061F9E0B204F05EF901200649C1F8B40152
:1029700000F0C4F810BD000066653A25780D0A0025
:10298000B40124420000244208B501214FF4C47070
:1029900002F0DCFF4FF40050ADF8000010208DF87D
:1029A000030003208DF8020069461E4800F0E8FE8F
:1029B0004FF400511B4800F079FF4FF48040ADF810
:1029C00000006946174800F0DBFE4FF480411548CF
:1029D00000F06CFF4FF48050ADF8000010208DF82F
:1029E00003006946104800F0CBFE4FF480510E48BA
:1029F00000F05CFF4FF40070ADF8000069460B4832
:102A000000F0BEFE4FF40071084800F04FFF0120B7
:102A10000749086004F0C0F800F036F8054908805E
:102A200008BD000000200140000C0140001C0140D6
:102A3000B4012442220000202DE9F04106460C4654
:102A4000174600200F490860032004F0EBF8C4F398
:102A5000074004F0E7F8C4F3072004F0E3F8E0B21D
:102A600004F0E0F8002505E0FF2004F0DBF87055E5
:102A7000681C85B2BD42F7DB012002490860BDE851
:102A8000F0810000B401244210B5002400200E495A
:102A90000860902004F0C6F8002004F0C3F800207D
:102AA00004F0C0F8002004F0BDF8FF2004F0BAF8EC
:102AB00044EA0024FF2004F0B5F804430120034950
:102AC000C1F8B401204610BDB401244200002442E4
:102AD00010B50024002007490860052004F0A2F882
:102AE000FF2004F09FF8044601200349C1F8B40117
:102AF000204610BDB40124420000244210B500BF9E
:102B0000FFF7E6FF00F001000028F9D110BD00003A
:102B10002DE9F05F81460F461646DFF8A8B04FEA70
:102B20001738C7F30B0ACAF58054A64200DC3446B6
:102B300044E04FEA08314FF480525846FFF77CFFDB
:102B4000002508E00AEB05001BF80000FF2800D074
:102B500003E0681C85B2A542F4DB00BFA54216DA8B
:102B60004046FFF7E5FE002507E019F8050005EBF4
:102B70000A010BF80100681C85B2A542F5DB4FEA9B
:102B800008314FF48052584600F02EF804E02246F7
:102B90003946484600F028F8A64200D10FE008F177
:102BA00001084FF0000AA1442744301B86B2B6F555
:102BB000805F02DD4FF4805400E03446B9E700BF87
:102BC000BDE8F09F3407002010B5002004490860DC
:102BD000062004F027F801200249C1F8B40110BD15
:102BE000B4012442000024422DE9F04107460E467C
:102BF0001446F0B2C0F58075AC4200DC254612E008
:102C00002A463146384600F013F8AC4200D10BE0BA
:102C10002F442E44601B84B2B4F5807F02DD4FF454
:102C2000807500E02546EBE700BFBDE8F0810000BD
:102C30002DE9F04106460C461746FFF7C5FF002078
:102C40000F490860022003F0EDFFC4F3074003F0D2
:102C5000E9FFC4F3072003F0E5FFE0B203F0E2FF71
:102C6000002504E0705D03F0DDFF681C85B2BD4205
:102C7000F8DB012002490860FFF740FFBDE8F08162
:102C8000B401244270B50446002500F0ADF9FF22DE
:102C90000021104600F080FA04E0681C85B2012093
:102CA00005F0B4FE1D2000F05AF900F0010010B943
:102CB000B5F5FA7FF1DBB5F5FA7F01DB012070BDD8
:102CC00000204C4908600021082000F041FA002152
:102CD000092000F03DFA00210C2000F039FA002113
:102CE0000D2000F035FA10210A2000F031FA1A21E7
:102CF0000B2000F02DFA1121042000F029FA1A21EE
:102D0000052000F025FAFF21062000F021FA1F21FE
:102D1000072000F01DFAB021382000F019FA3F21F9
:102D2000282000F015FA3021292000F011FAF921AD
:102D3000302000F00DFAF721312000F009FA0D21C2
:102D4000C02000F005FA0021C12000F001FA332272
:102D5000C221802000F020FA1221C62000F0F8F9EC
:102D60000C21C72000F0F4F91521C42000F0F0F97F
:102D7000EE21CA2000F0ECF90521CB2000F0E8F9A3
:102D80002178E42000F0E4F96178E52000F0E0F932
:102D9000A178E22000F0DCF9E178E32000F0D8F936
:102DA0002179E02000F0D4F96179E12000F0D0F938
:102DB0004FF48071002000F01FF84FF48071102054
:102DC00000F01AF81F2000F0A9F9C0221B21802072
:102DD00000F0E2F904221F21802000F0DDF9E42058
:102DE00000F0BDF82178884201D1002067E701207A
:102DF00065E700005400002070B505460C4600262B
:102E00002946D42000F0A4F9E1B2D62000F0A0F9C0
:102E1000C4F30721D72000F09BF901E0701C86B2B3
:102E2000EA2000F09CF800F0010018B140F6FF70B5
:102E30008642F3DB70BD00002DE9F04105460F46E8
:102E4000392000F08CF810B90020BDE8F081294845
:102E50000178002000F07CF926480088C0F30721A3
:102E6000012000F075F900213A2000F09DF8214979
:102E7000086000213A2000F097F81E49096841EAED
:102E800000201C49086000213A2000F08DF804461B
:102E900000213A2000F088F844EA0024241F002191
:102EA0003A2000F081F8064600213A2000F07CF834
:102EB00046EA0026681EA04200D26C1E06F0800082
:102EC00008B9002403E03946204600F053F80948C9
:102ED00001780C2000F03CF906480088C0F3072177
:102EE0000D2000F035F940221E21802000F054F919
:102EF0002046AAE75400002070B504460D46112173
:102F0000022000F025F91A21032000F021F91120F8
:102F10002044C1B2062000F01BF941F611202044E4
:102F2000C0F30721072000F013F9002211467A2090
:102F300000F032F92946204600F016F908221F2138
:102F4000802000F029F91C2000F009F800F00200B0
:102F500020B108221F21A02000F01EF970BD10B57D
:102F60000446204600F0DAF82146002000F01CF864
:102F700010BD000070B505460C46002009490860E8
:102F80003A2003F04FFE05E06D1E002003F04AFEDC
:102F90002070641C002DF7D1002020700120014911
:102FA000086070BDB081214270B505460C46002610
:102FB00000200C49086004F01F0040EA0506304676
:102FC00003F030FEFF2003F02DFE064604F08000E3
:102FD00018B1FF2003F026FE0646012001490860D3
:102FE000304670BDB081214210B500F01BF80820BA
:102FF00003F034FE40F2CF214FF47A7004F002FA6D
:103000000020064908600A2005F000FD012004495F
:10301000C1F8A4010A2005F0F9FC10BDA4812142E9
:103020000080214200B587B00121880302F07EFCB8
:1030300001214FF4947002F089FC4FF4C040ADF8C8
:10304000040010208DF8070003208DF8060001A968
:103050002E4800F095FB4FF4C0412C4800F026FCB0
:103060004FF40070ADF8040001A9294800F088FB76
:103070004FF40071264800F019FC4FF49850ADF859
:10308000040001A9234800F07BFB4FF4985121482C
:1030900000F00CFC4FF46040ADF8040018208DF8EF
:1030A000070003208DF8060001A91A4800F068FB0C
:1030B0004FF46041174800F0F9FB0020ADF808001C
:1030C0004FF48270ADF80A000020ADF80C00ADF8A6
:1030D0000E00ADF810004FF40070ADF8120038206B
:1030E000ADF814000020ADF816000720ADF8180068
:1030F00002A9094803F0E0FD0121074803F0C2FDE1
:10310000FF2003F08FFD07B000BD0000002001404C
:10311000001C0140000C01400038004010B504467E
:1031200004F060000949097888420ED003221F216B
:10313000A02000F031F8C4F341121F21802000F0DC
:103140002BF804F060000149087010BD5000002009
:1031500070B504460D462046FFF7E0FF2A4621469B
:10316000402000F019F870BD70B504460D460020EF
:10317000084908607A2003F055FD04E0641E2878B1
:1031800003F050FD6D1C002CF8D1012001490860AE
:1031900070BD0000B08121422DE9F04104460D468A
:1031A0001646002700200949086005F01F0040EA84
:1031B0000407384603F036FD304603F033FD0120A6
:1031C0000349C1F8B001BDE8F0810000B08121429F
:1031D000008021422DE9F04100240026002530E046
:1031E0004FF400411B4800F056FB012829D100F0A4
:1031F000B5FB0446FA2C00DB24E0C82C03DBFA2CD8
:1032000001DA01260AE03C2C03DB5A2C01DA012703
:1032100004E00A2C02DB322C00DA0027012E0ED14A
:103220000D48006840000C490860084600683844B2
:103230000860202D03DB01200849087002E0681CAB
:10324000C5B2CDE700BF4FF4004000F009F8BDE87B
:10325000F081000000200140380000203C000020E8
:10326000014908607047000014040140002123490F
:103270008279002A3AD00A46126803689A430B46BC
:103280001A600A1D126803689A430B1D1A600279BE
:1032900011440A6803681A430A60184A083212681F
:1032A00003689A43154B08331A601A1D12680368A5
:1032B0009A43124B0C331A604279102A0ED11A1F0E
:1032C000126803681A430D4B08331A601A1D1268FE
:1032D00003681A43094B0C331A600DE00749427921
:1032E00011440A6803681A430A6005E00279114430
:1032F0000A6803689A430A607047000000040140AE
:103300002DE9FF4105460E46F020039000274FF4BB
:1033100080641CA01021CDE9001006F1100083B2DA
:10332000EF223146284602F033F91AE00122214605
:1033300003A800F0F8F90122214602A800F0E8F9FC
:103340009DF808009DF80C10884209D1781C87B2BE
:1033500004F5806400200290B4F5801F01D901E0DB
:1033600000E0E3E700BF00201021CDE9001005F1E7
:10337000580188B204233A46314602F06FF9BDE89D
:10338000FF81000045785352414D204361703A203F
:103390002020304B4200000010B58AB03B4B0FCBD1
:1033A00006AC0FC40021012002F016FE002001F03F
:1033B00009F8FFF7E9FA4FF6E0703549088035A2C1
:1033C0000A21084601F0F2FF3648374A0090528839
:1033D0001E3A91B2344A1288283A90B21E2328220B
:1033E00002F0A8F831A23A210A2001F0DFFF34A24E
:1033F0004E210A2001F0DAFF43E0002000F0C6FE73
:103400000446012C0ED11022002106A8FFF780FBF4
:1034100031A262210A2001F0C9FF33A276210A20DD
:1034200001F0C4FF022C09D11022002102A8FFF7ED
:1034300003FB02AA9E210A2001F0B8FF2F488188D1
:10344000194800882838814219DD2C48808816499F
:103450000988884213DA2948C188134840881E38F1
:1034600081420CDD2548C0880F494988884206DA28
:1034700000F0CCFF0121084602F0AEFD02E004F0AE
:103480005DFABAE700BF0AB010BD0000244502088B
:1034900014000020CDE2B2BF464C415348B2E2CA0C
:1034A000D4000000F45C0208180000204B5F757027
:1034B0003A20666C6173682077726974652E2E00FD
:1034C0004B5F646F776E3A20666C6173682072653B
:1034D00061642E2E000000007777772E707265638E
:1034E00068696E2E636E0000466C617368205772C7
:1034F0006974652053756363657373002C00002045
:1035000051B18200A2F1C042126842F00103820070
:10351000A2F1C042136009E08200A2F1C042126829
:10352000034B1A408300A3F1C0431A6070470000A8
:10353000FEFF0F00D0E901121143C2681143026976
:1035400011434269114382691143C2691143026AFE
:103550001143426A1143826A1143C26A1143026BEA
:10356000114302689200A2F1C042116081680829EB
:103570000BD101688900A1F1C041096841F0400206
:1035800001688900A1F1C0410A60416B0968426B82
:10359000526841EA0211426B926841EA0221426B91
:1035A000928941EA0241426B128A41EA0251426B1E
:1035B000127D41EA0261426B926911430268521C1A
:1035C0009200A2F1C0421160C16AB1F5804F1BD1D7
:1035D000816B0968826B526841EA0211826B9268C2
:1035E00041EA0221826B128A41EA0251826B127D0A
:1035F00041EA0261826B9269114302689200A2F172
:10360000C042C2F8041107E06FF0704201688900FF
:10361000A1F1C041C1F804217047000000B597B086
:1036200001214FF4F07002F091F90121080202F03B
:103630006DF903208DF85A004FF48060ADF8580002
:1036400018208DF85B0016A92D4800F099F803208A
:10365000ADF8580016A92B4800F092F83020ADF8CC
:10366000580016A9284800F08BF84FF60370ADF803
:10367000580016A9244800F083F84FF68070ADF882
:10368000580016A91F4800F07BF84FF23F00ADF834
:10369000580016A91D4800F073F83F20ADF85800F7
:1036A00016A9174800F06CF800200090019008203F
:1036B000029000200390049005900690042007904B
:1036C00000200890099010200A9000200B900D9087
:1036D0000C900E900F904FF480501090002011909D
:1036E00012901390CDF850D0CDF854D007A8FFF722
:1036F00021FF01210420FFF703FF17B000BD0000E8
:10370000002001400018014000140140001C01404D
:1037100006E04FF0D0435B5C00F8013B491C521EB1
:10372000002AF6D1704710B506E010F8014B4FF0B3
:10373000D0435C54491C521E002AF6D110BD000033
:1037400030B500228B071C0F0F2303FA04F20B4B3A
:103750008C1053F824309343084C8D1044F82530D6
:1037600023468C1053F824308C07240F00FA04F4FD
:103770002343024C8D1044F8253030BD0800014031
:103780002DE9F041024600250026002000230024F8
:10379000002791F803C00CF00F0591F803C00CF05E
:1037A000100CBCF1000F03D091F802C04CEA0505E3
:1037B00091F800C0BCF1000F31D0146800202BE05C
:1037C0004FF0010C0CFA00F3B1F800C00CEA03064C
:1037D0009E4220D183004FF00F0C0CFA03F7BC433C
:1037E00005FA03FC4CEA040491F803C0BCF1280F6D
:1037F00006D14FF0010C0CFA00FCC2F814C00AE02C
:1038000091F803C0BCF1480F05D14FF0010C0CFA40
:1038100000FCC2F810C0401C0828D1D31460B1F8D5
:1038200000C0BCF1FF0F34DD546800202EE000F131
:10383000080C4FF0010808FA0CF3B1F800C00CEACC
:1038400003069E4221D183004FF00F0C0CFA03F7C0
:10385000BC4305FA03FC4CEA040491F803C0BCF134
:10386000280F05D100F1080C08FA0CF8C2F81480F2
:1038700091F803C0BCF1480F07D100F1080C4FF0DC
:10388000010808FA0CF8C2F81080401C0828CED3B2
:103890005460BDE8F0810246002093680B400BB1F4
:1038A000012000E0002070474161704701617047CE
:1038B000C16070472DE9F04105460C4600260723FC
:1038C000012229460F48FDF7A5F9002713E0012141
:1038D0000C48FDF700FA00BF02210A48FDF75EF927
:1038E0000028F9D00748FDF755F90644052005F0F2
:1038F0008DF8781CC7B2A742E9DBB6FBF4F080B2C2
:10390000BDE8F081002401402DE9F04105460C4658
:1039100000260723012229460F48FDF77BF90027DF
:1039200013E001210C48FDF7D6F900BF02210A4837
:10393000FDF734F90028F9D00748FDF72BF90644C4
:10394000052005F063F8781CC7B2A742E9DBB6FB97
:10395000F4F080B2BDE8F0810024014010B50024ED
:1039600008E0601CC4B2142005F076F8FA2C01DBE4
:10397000204610BD4FF400410348FFF78CFF01289B
:10398000EFD02046F5E700000020014000BFFEE731
:103990001FB5012140F2011001F0D8FF4FF40040A3
:1039A000ADF80C0048208DF80F0003A91448FFF76C
:1039B000E7FE0F210620FFF7C3FE4FF40040FFF79C
:1039C0004FFC4FF40040019000208DF808000C20BF
:1039D0008DF8090001208DF80A0001A8FFF746FCC8
:1039E00028208DF8000000208DF8010001208DF8BE
:1039F00002008DF80300684601F032FF1FBD000091
:103A00000020014010B500200A49086002F012FCB5
:103A100000200949C1F8AC01022005F01DF8012081
:103A200004490860052005F017F800200249C1F894
:103A3000A80110BDA88121420080214208B50121C2
:103A4000082001F083FF4FF48060ADF800000320F0
:103A50008DF8020010208DF8030069460848FFF732
:103A60008FFE4FF40060ADF8000069460448FFF790
:103A700087FE0120034908600349C1F8AC0108BD75
:103A8000000C0140A88121420080214210B5002095
:103A90000A49086002F0CEFB01200949C1F8AC01D7
:103AA000022004F0D9FF012004490860052004F039
:103AB000D3FF00200249C1F8A80110BDA88121420E
:103AC0000080214270B50546002402F0A3FB0026C9
:103AD00016E000200F490860022004F0BDFF01201D
:103AE0000D49C1F8A8016006040E0A487C38006838
:103AF00008B1601CC4B2012004F0AEFF701CC6B255
:103B0000082EE6DB15B9FFF7C1FF01E0FFF77AFFEA
:103B1000204670BDA88121420080214270B5044634
:103B200002F088FB002014490860002520E004F022
:103B30008000002804DD01200F49091D086003E012
:103B400000200D49091D08606006040E022004F0E3
:103B500083FF012008490860022004F07DFF002057
:103B60000649C1F8A801022004F076FF681CC5B21E
:103B7000082DDCDB70BD0000A881214200802142BD
:103B800010B502F057FB0120094908600949C1F846
:103B9000A801052004F060FF002005490860062008
:103BA00004F05AFF00200349C1F8A80110BD00002D
:103BB000AC8121420080214210B502F03BFB002085
:103BC000094908600949C1F8AC01012006490860AB
:103BD000062004F041FF01200449C1F8AC01062091
:103BE00004F03AFF10BD0000A8812142008021426C
:103BF00010B5002402F00EFB01200E49086004F00D
:103C00002BFF01200C49C1F8A80104F025FF07E0B3
:103C1000601CC4B2FA2C03DDFFF7CEFF012010BDFB
:103C20000448803800680028F2D10249091F086062
:103C300000BFF4E7AC8121420080214200B589B089
:103C400064A30FCBCDE90323CDE9010100210120BD
:103C500002F0C2F9002000F0B5FBFFF799FE4FF625
:103C6000E0706049088060A20A21084601F09EFBCE
:103C70006148624A009052881E3A91B25F4A1288A7
:103C8000283A90B21E23282201F054FC5CA2322173
:103C90000A2001F08BFB98E05D480078012871D183
:103CA00000205B4908705B480068000E8DF820001A
:103CB00058480068000C8DF8210056480088000A1A
:103CC0008DF82200534800788DF8230000205149D8
:103CD00008609DF82000C11700EB1171091101AABD
:103CE000515C8DF814109DF82000C11700EB117184
:103CF0000911A0EB0111515C8DF815109DF8210000
:103D0000C11700EB11710911515C8DF816109DF867
:103D10002100C11700EB11710911A0EB0111515CD9
:103D20008DF817109DF82200C11700EB11710911D1
:103D3000515C8DF818109DF82200C11700EB11712D
:103D40000911A0EB0111515C8DF819109DF82300A9
:103D5000C11700EB11710911515C8DF81A109DF813
:103D60002300C11700EB11710911A0EB0111515C87
:103D70008DF81B1000208DF81C0005AA322183202D
:103D800001F014FB244881881C48008828388142AF
:103D900019DD2148808819490988884213DA1E48AC
:103DA000C188164840881E3881420CDD1A48C088F8
:103DB00012494988884206DA00F028FB01210846AA
:103DC00002F00AF902E003F0B9FD65E700BF09B0AF
:103DD00000BD000030313233343536373839414296
:103DE0004344454614000020BAECCDE2D2A3BFD82C
:103DF000B2E2CAD400000000F45C020818000020FF
:103E0000BAECCDE2D2A3BFD8BCFCC2EBA3BA00008F
:103E10003C000020380000202C0000200EB50021BE
:103E2000012002F0D9F8002000F0CCFA4FF6E07043
:103E30008349088083A20A21084601F0B7FA864A1E
:103E400028210A2001F0B2FA844A5A210A2001F0FE
:103E5000ADFA834A8C210A2001F0A8FA81A24FF41E
:103E600096710A2001F0A2FA8548864A009052888D
:103E70001E3A91B2834A1288283A90B21E23282211
:103E800001F058FBFDF75CF8FCF748FF2DE07EA041
:103E90001021CDE900107B4843880288C8210A2000
:103EA00001F076FB7E488188764800882838814278
:103EB00019DD7B48808873490988884213DA78487D
:103EC000C188704840881E3881420CDD7448C08823
:103ED0006C494988884206DA00F098FA01210846C0
:103EE00002F07AF80EBD03F029FD06F00FFA002863
:103EF000CDD16C4908606C49C1F884016BA01021D8
:103F0000CDE900105F4843880288C8210A2001F0EB
:103F10003FFB07F00DF86BA01021CDE900105948C8
:103F200043880288E6210A2001F032FB69A01021B3
:103F3000CDE90010534843880288FA210A2001F095
:103F400027FB69A01021CDE900104E484388028864
:103F50004FF487710A2001F01BFB00BF4AF6C00036
:103F6000ADF8080041F20100ADF80A0000BF00BF43
:103F7000BDF8080061490880BDF80A00488000BF0C
:103F800000BF4AF6C000ADF8080040F20110ADF8DD
:103F90000A0000BF00BFBDF8080059490880BDF8FD
:103FA0000A00488000BF00BF4FF6FF70ADF8080060
:103FB000FF20ADF80A0000BF00BFBDF8080051495E
:103FC0000880BDF80A00488000BF4BF2040006F0EC
:103FD000F7FF4FF4A04006F0F3FF06F0D9FA2DE00A
:103FE00007F01EF8012004F011FD2D4881882548B6
:103FF0000088283881421FDD2948808821490988A6
:10400000884219DA2648C1881E4840881E388142F5
:1040100012DD2348C0881B49498888420CDA0120F8
:10402000204908602049C1F8840100F0EFF901211E
:10403000084601F0D1FF55E703F080FCD0E700000F
:1040400014000020454E32384A3630D2D4CCABCDA5
:10405000F8B2E2CAD40000006C7D0208B87D020804
:10406000147D0208C7EBB0B4A1B0B8B4CEBBA1B107
:10407000BCFCB7B5BBD8D6F7BDE7C3E6000000006F
:10408000F45C020818000020454E4332384A3630AE
:1040900020496E6974204572726F72210000000021
:1040A0002C000020800122420000224220202020FB
:1040B0002020202020202020202020202020202000
:1040C0000000000049503A3139322E3136382E3155
:1040D0002E3136004D41534B3A3235352E3235357F
:1040E0002E3235352E300000474154455741593A5C
:1040F0003139322E3136382E312E310094000020E5
:10410000980000209C0000200146CA1701EB927223
:104110009210A1EB820292B9642091FBF0F200FBB5
:10412000121050B94FF4C87091FBF0F200FB12105E
:1041300008B9012070470020FCE70120FAE70020C1
:10414000F8E7000008B50121442001F0FFFB012041
:10415000ADF8000028208DF8030003208DF8020040
:1041600069460848FFF70CFB1C20ADF8000048200A
:104170008DF8030003208DF8020069460248FFF71E
:10418000FFFA08BD000801400018014010B50446C0
:1041900022480078012826D12148006801280AD049
:1041A0002048006838B11F48001F006818B11D483A
:1041B000001D0068B8B90A2004F028FC0020174947
:1041C000087017480068012800D110BD1548006824
:1041D00008B90220F9E71348001F006808B9032056
:1041E000F3E70420F1E70E48006878B90D4800684D
:1041F00001280BD10B48001F0068012806D109488F
:10420000001D0068012801D104490870012C02D169
:104210000120024908700020D7E700002400002098
:10422000000121420C01234238B50021012001F098
:10423000D3FE002000F0C6F8FFF784FF4FF6E070D1
:104240004D4908804DA20A21084601F0AFF84E48BA
:104250004E4A009052881E3A91B24C4A1288283A2F
:1042600090B21E23282201F065F949A228210A20D4
:1042700001F09CF84FF6E070DC234622B421009058
:104280000A2000F0C9FE4FF6E070DC239622B4212C
:1042900000905A2000F0C0FE4FF6E0704FF48C738F
:1042A0004622F02100900A2000F0B6FE4FF6E070A2
:1042B0004FF48C739622F02100905A2000F0ACFE4F
:1042C00056E00020FFF762FF0446012C06D0022CC6
:1042D0000DD0032C14D0042C26D11BE01F20DC238E
:1042E0004622B42100900A2000F096FE1CE01F2018
:1042F000DC239622B42100905A2000F08DFE13E0BA
:104300001F204FF48C734622F02100900A2000F009
:1043100083FE09E01F204FF48C739622F021009059
:104320005A2000F079FE00BF00BF25488188174859
:1043300000882838814219DD21488088134909887E
:10434000884213DA1E48C188104840881E388142CE
:104350000CDD1B48C0880D494988884206DA00F008
:1043600055F80121084601F037FE02E003F0E6FAB5
:10437000A7E700BF38BD000014000020B0B4BCFCAB
:10438000B2E2CAD400000000F45C02081800002069
:10439000B0B4CFC2BFAAB7A2B0E5C9CFC3E6B5C417
:1043A000B0B4BCFCBFC9D4DAB2CAC6C1C9CFB5C4A7
:1043B000B7BDBFE9B1E4BBBBD1D5C9AB00000000BC
:1043C0002C00002070B506460F484088401E83B27E
:1043D0000D480088401E82B20021084600F05EFEB3
:1043E00000240CE0002504E0304601F0A3F9681C2D
:1043F00085B205484088A842F6DC601C84B20248B9
:104400000088A042EEDC70BD1800002000B587B027
:1044100047F67C50FFF7D6FFFE480090FE48037831
:104420000278FE480178FE48007801F083F8FDA08C
:104430000C21CDE90010FC4800780838069000EB0C
:10444000D0704110F5480078F84A127810440844BA
:1044500080B20490F64800781238059000EBD070D6
:10446000EF49097801EB600080B2142364220390C5
:10447000049901F0C0F8EF480090E9480078EC4951
:1044800009780844EC49097808440690E248037822
:104490000278E2480178069801F04CF8E7A00C2178
:1044A000CDE90010E04800780838069000EBD070A5
:1044B000DA490978DD4A1278114401EB600080B2D4
:1044C0000490DB4800781838059000EBD07041105C
:1044D000D3480078D64A12781044D74A127810444C
:1044E000084480B2142364220390049901F083F8F5
:1044F000D4480090CA480078CD490978022202FBCE
:104500000100CD49097802FB01000690C2480378FA
:104510000278C2480178069801F00CF8CAA00C2174
:10452000CDE90010BE480078C1490978022202FB9B
:104530000100C149097802FB0101BD480078123829
:10454000059000EBD07001EB600080B20390B6489C
:1045500000780838069000EBD070B0490978B34A6B
:104560001278114401EB600080B2142364220146EA
:104570000490039801F03FF8B4480090A8480078F0
:10458000AB490978032202FB0100AB49097802FB21
:1045900001000690A04803780278A04801780698A8
:1045A00000F0C8FFAAA00C21CDE900109C480078BB
:1045B0009F490978032202FB01009F49097802FB09
:1045C00001019B4800781238059000EBD07001EB98
:1045D000600080B20390944800780838069000EBA1
:1045E000D0708E490978914A1278114401EB60002D
:1045F00080B21423642201460490039800F0FBFF6C
:10460000944800908548007887490978084487498C
:10461000097808440690804803780278804800783A
:10462000069900F087FF8CA00C21CDE900107E4890
:1046300000780838069000EBD070784909787A4AFB
:1046400012781144794A12781144784A1278114448
:1046500001EB600080B20490754800781238059034
:1046600000EBD0706E49097801EB600080B2142332
:1046700064220390049900F0BEFF784800906748D8
:10468000007869490978084468490978084406901F
:1046900063480078664909780844674909780844FE
:1046A00005905D4803780278DDE9050100F042FFDE
:1046B0006BA00C21CDE900105B480078083806900B
:1046C00000EBD07055490978574A12781144574A7F
:1046D00012781144554A1278114401EB600080B2FF
:1046E0000490534800781E38059000EBD0704110BC
:1046F0004B4800784E4A127810444F4A12781044C2
:10470000084480B2142364220390049900F073FFDC
:10471000554800904248007845490978022202FB3A
:1047200001004549097802FB010005903B480078EB
:104730003D49097808443D490978084406903648BF
:1047400003780278DDE9050100F0F4FE47A00C21B2
:10475000CDE900103248007835490978022202FB81
:1047600001003549097802FB0101314800782438FD
:10477000059000EBD07001EB600080B203902A48F6
:1047800000780838069000EBD07024490978264A52
:1047900012781144254A12781144244A127811449F
:1047A00001EB600080B21423642201460490039858
:1047B00000F021FF2F480090194800781C49097823
:1047C000032202FB01001C49097802FB010005904D
:1047D00012480078144909780844144909780844B3
:1047E00006900D4803780278DDE9050100F0A2FE8D
:1047F00021A00C21CDE90010094800780C49097866
:10480000032202FB01000C49097802FB0101084860
:10481000007835E03CC10008270000202900002076
:10482000280000204C4544002B00002026000020DA
:10483000250000203CD300082A00002042454550B6
:10484000000000003CE500084B4559003C1B0108F6
:10485000414443003C090108534D47003C2D0108E9
:1048600031384232300000003C3F0108454550528B
:104870004F4D00003C5101084952454400000000E2
:104880001838059000EBD07001EB600080B2039007
:10489000FE4800780838069000EBD070FC49097893
:1048A000FA4A12781144FB4A12781144F94A1278F4
:1048B000114401EB600080B214236422014604908D
:1048C000039800F098FEF4480090F1480078EF4912
:1048D0000978022202FB0100EE49097802FB01007F
:1048E0000690EE4803780278ED480078069900F0CB
:1048F00021FEECA00C21CDE90010E5480078E34949
:104900000978022202FB0100E249097802FB01005A
:10491000E04909780144DD4800780838069000EB4A
:10492000D07001EB600080B20490E04800781E383F
:10493000059000EBD070DA49097801EB600080B295
:10494000142364220390049900F055FED848009087
:10495000CF480078CD490978022202FB0100CD49F9
:10496000097802FB01000690CD480178CF48007815
:104970000844D049097808440590C848037802786B
:10498000DDE9050100F0D6FDCBA00C21CDE900103A
:10499000BF480078BD490978022202FB0100BD49E9
:1049A000097802FB0100BB4909780144B748007847
:1049B0000838069000EBD07001EB600080B20490E4
:1049C000BA4800781838059000EBD0704110B44810
:1049D0000078B64A12781044B64A12781044084457
:1049E00080B2142364220390049900F004FEB448BA
:1049F0000090A7480078A5490978022202FB01002F
:104A0000A449097802FB01000690A5480078A7494F
:104A1000097802FB0100A749097802FB0100059013
:104A20009E4803780278DDE9050100F083FDA5A02A
:104A30000C21CDE9001096480078944909780222AB
:104A400002FB01009349097802FB010091490978B2
:104A500001448E4800780838069000EBD07001EBD6
:104A6000600080B204908E4801789048007802FB84
:104A7000001290480078022101FB00218B48007849
:104A80002438059000EBD07001EB600080B2142355
:104A900064220390049900F0AEFD8C4800907C489D
:104AA00000787A490978022202FB010079490978E5
:104AB00002FB010006907A4800787C4909780322BD
:104AC00002FB01007B49097802FB01000590734855
:104AD00003780278DDE9050100F02CFD7CA00C21B3
:104AE000CDE900106A48007868490978022202FB83
:104AF00001006849097802FB010066490978014410
:104B0000624800780838069000EBD07001EB600036
:104B100080B204906248007864490978032202FB5D
:104B200001006449097802FB0101604800780C38F3
:104B3000059000EBD07001EB600080B2142364227A
:104B40000390049900F057FD6248009050480078A7
:104B50004E490978032202FB01004E49097802FB05
:104B6000010006904D48037802784D480078069978
:104B700000F0E0FC58A00C21CDE90010444800787A
:104B800042490978032202FB01004249097802FBED
:104B900001004049097801443C48007808380690F3
:104BA00000EBD07001EB600080B204903F480078C9
:104BB0001E38059000EBD070411039480078084449
:104BC00080B2142364220390049900F014FD444839
:104BD00000902F4800782D490978032202FB01003C
:104BE0002C49097802FB010006902D4800782F49D6
:104BF000097808442F490978084405902748037824
:104C00000278DDE9050100F095FC36A00C21CDE924
:104C100000101F4800781D490978032202FB01009B
:104C20001C49097802FB01001A4909780144174818
:104C300000780838069000EBD07001EB600080B27D
:104C400004901A4800781E38059000EBD070144983
:104C50000A78164909781144164A1278114401EB72
:104C6000600080B2142364220390049900F0C3FC16
:104C70001E4800900648007804490978032202FB88
:104C800001000449097802FB010031E02B000020FB
:104C900029000020260000203C6301082700002096
:104CA00028000020464C4153480000002500002009
:104CB0003C7501082A0000205352414D00000000BD
:104CC0003C87010841445833343500003C990108C1
:104CD000534400003CAB0108525332333200000011
:104CE0003CBD010852533438350000003CCF010868
:104CF00006907A4800787A490978022202FB01007E
:104D00007849097802FB010005907748037802781A
:104D1000DDE9050100F00EFC74A00C21CDE90010C6
:104D20007348007873490978032202FB0100724935
:104D3000097802FB01007049097801446D48007848
:104D40000838069000EBD07001EB600080B2049050
:104D50006248007862490978022202FB0100614939
:104D6000097802FB01015E4800781238059000EBDB
:104D7000D07001EB600080B2142364220390049988
:104D800000F039FC5D48009059480078594909788D
:104D9000032202FB01005849097802FB010006903A
:104DA0004E4800784E49097802FB01004D490978C8
:104DB00002FB010005904C4803780278DDE905010B
:104DC00000F0B8FB4EA00C21CDE900104848007857
:104DD00048490978032202FB01004749097802FB90
:104DE0000100454909780144424800780838069096
:104DF00000EBD07001EB600080B20490374800787F
:104E00003749097802FB01003649097802FB0101A4
:104E1000334800781E38059000EBD07001EB60003D
:104E200080B2142364220390049900F0E4FB364816
:104E300000902F4800782F490978042202FB0100D6
:104E40002D49097802FB0100069027480378027873
:104E500022480078069900F06DFB2C480090244809
:104E6000007824490978042202FB010022490978CC
:104E700002FB01000690194801781948007808449F
:104E80001849097808440590174803780278DDE945
:104E9000050100F04FFB1E480090154800781549A9
:104EA0000978042202FB01001349097802FB010082
:104EB00006900A4800780A490978022202FB01009C
:104EC0000849097802FB0100059007480378027839
:104ED000DDE9050100F02EFB07B000BD2800002031
:104EE000250000202A0000202700002043414E001A
:104EF000290000202B000020260000203CE10108B2
:104F0000496E7465720000003CF301083C0502081C
:104F10003C17020800B50246B2B9012000F0FEFBC2
:104F20004FF4807000F000FC032000F0F7FB41F22A
:104F3000300000F0F9FB4FF4C8700E494880F020B3
:104F400008800020887114E0012000F0E7FB0020B9
:104F500000F0EAFB032000F0E1FB41F2380000F032
:104F6000E3FBF020034948804FF4C870088001201B
:104F7000887100BD1800002070B504460D46164625
:104F80002B4622462946204600F088F8304600F09D
:104F9000D1FB70BDF0B504460D46174605F1010C76
:104FA0001FFA8CF304F1010C1FFA8CF2A5F1010C2D
:104FB0001FFA8CF1A4F1010C1FFA8CF000F06EF8CE
:104FC000002604E0384600F0B5FB701CC6B2092E7E
:104FD000F8DB211D8AB2211F88B22B46294600F03A
:104FE0005DF8002604E0384600F0A4FB701CC6B251
:104FF000092EF8DB281D83B2281F81B222462046E5
:1050000000F04CF8002604E0384600F093FB701CDA
:10501000C6B2092EF8DBF0BD2DE9F04304460D467B
:1050200016461F46DDF81C80B44201DCBD4201DD9E
:10503000BDE8F083781E83B2701E82B229462046F6
:1050400000F02CF8301B401C84B2781B401C85B249
:105050000BE0A94602E0404600F06CFB5FEA090065
:10506000A9F101011FFA81F9F5D12000A4F1010194
:105070008CB2EED100BFDBE710B50246012000E0A4
:1050800050430B00A1F10104E1B2F9D110BD0000C1
:1050900001480088704700000008006C30B50546E4
:1050A0000C462E48807950BB4FF4047000F036FB5C
:1050B000284600F039FB40F2112000F02FFB10468B
:1050C00000F032FB40F2122000F028FB204600F0F6
:1050D0002BFB40F2132000F021FB184600F024FBCC
:1050E0004FF4007000F01AFB284600F01DFB40F260
:1050F000012000F013FB204600F016FB29E040F2EF
:10510000122000F00BFB284600F00EFB40F21320AB
:1051100000F004FB104600F007FB4FF4047000F0B1
:10512000FDFA204600F000FB40F2112000F0F6FAF4
:10513000184600F0F9FA40F2012000F0EFFA284694
:1051400000F0F2FA4FF4007000F0E8FA204600F0A8
:10515000EBFA40F2022000F0E1FA30BD1800002026
:105160002DE9F84F80460E4617461C46B3462046AA
:10517000E31704EB5373DB1021464FEAE47C04EBA6
:105180005C7C4FEAEC0CA4EBCC0CBCF1000F02D021
:105190004FF0010C01E04FF0000C6344224604EB99
:1051A000D27C4FEA6C0C03FB0CF3DBB20093A7F14B
:1051B0002000C7B2002556E00C2C07D107EB4700B2
:1051C0002B4901EB800010F8059013E0102C05D15D
:1051D000284800EB071010F805900BE0182C07D1B9
:1051E00007EBC700244901EB800010F8059001E0AF
:1051F000BDE8F88F4FF0000A2FE009F0800030B1D1
:105200001E48028831464046FFF7B6FE07E00A987E
:1052100028B91B48028831464046FFF7ADFE4FEAE9
:1052200049604FEA1069701C86B216484088B04247
:1052300000DCDDE7A6EB0B00A0420AD15E4608F1D8
:1052400001001FFA80F80F480088404500DCCFE7D6
:1052500006E00AF1010000F0FF0ABAF1080FCCDB0A
:1052600000BF681CC5B200988542A5DB00BFBFE740
:105270003C290208B02D0208A033020814000020C7
:1052800016000020180000202DE9F84F80460E4639
:1052900017461C46B3462046E31704EB5373DB1056
:1052A00021464FEAE47C04EB5C7C4FEAEC0CA4EB77
:1052B000CC0CBCF1000F02D04FF0010C01E04FF01C
:1052C000000C6344224604EBD27C4FEA6C0C03FBD7
:1052D0000CF3DBB20093A7F12000C7B2002556E023
:1052E0000C2C07D107EB47002B4901EB800010F88D
:1052F000059013E0102C05D1284800EB071010F89A
:1053000005900BE0182C07D107EBC700244901EBEF
:10531000800010F8059001E0BDE8F88F4FF0000A1A
:105320002FE009F0800030B14FF6FF723146404661
:10533000FFF722FE07E00A9828B91A48028831468A
:105340004046FFF719FE4FEA49604FEA1069701CAA
:1053500086B215484088B04200DCDDE7A6EB0B00C2
:10536000A0420AD15E4608F101001FFA80F80E48FB
:105370000088404500DCCFE706E00AF1010000F0BC
:10538000FF0ABAF1080FCCDB00BF681CC5B2009859
:105390008542A5DB00BFBFE734450208A8490208E3
:1053A000984F020816000020180000202DE9F04F49
:1053B00089B005460F4614460026A9E020788028CB
:1053C00049DA2078A0F1200636015548064410221B
:1053D000314601A8FDF730FB07F10F0083B2E81D4D
:1053E00082B239462846FFF759FE4FF0000921E006
:1053F00001A810F809B04FF0000814E00BF080008D
:10540000802804D14748008800F094F903E046481A
:10541000008800F08FF94FEA4B604FEA106B08F1FB
:10542000010000F0FF08B8F1080FE7DB09F1010007
:1054300000F0FF09B9F1100FDADB641C05F1080078
:1054400085B23A4800880838A84261DA002507F199
:10545000100087B25CE0207881381FFA80FABE2005
:105460000AFB00F694F801A0BAF17F0F04DAAAF162
:1054700040001FFA80FA03E0AAF141001FFA80FA07
:10548000564476012A4806442022314601A8FDF7F9
:10549000D3FA07F10F0083B205F10F0082B239464B
:1054A0002846FFF7FBFD4FF0000821E001A810F8A7
:1054B00008B04FF0000914E00BF08000802804D100
:1054C0001848008800F036F903E01748008800F01B
:1054D00031F94FEA4B604FEA106B09F1010000F01F
:1054E000FF09B9F1080FE7DB08F1010000F0FF0840
:1054F000B8F1200FDADB05F1100085B20B48008807
:105500000F38A84203DA002507F1100087B2A41C67
:10551000207800287FF452AF09B0BDE8F08F00007A
:105520004E465D00140000201600002018000020E8
:10553000004C5D002DE9F04F8046894615461E4619
:10554000DDF824A000270024A34609EB0600401E36
:1055500083B208EB0500401E82B249464046FFF781
:105560009DFD05FB06F04FEA400B00BF601C1AF8DA
:1055700000704FF6FF7000EA07271AF8040007438F
:10558000384600F0D7F8A41C5C45EFDBBDE8F08F8F
:105590002DE9F84704460D4690469946DDE909672E
:1055A00004F0FF0A08EB04001FFA80F809EB05007D
:1055B0001FFA80F916E0444502DB5446A81985B26B
:1055C0004D4500DB14E0002000903A783346294630
:1055D0002046FFF7C5FD304606EBD07104EB6101B4
:1055E0008CB27F1C38787E2802DC38782028E2DAFA
:1055F00000BFBDE8F8872DE9F84F04460D469046F8
:105600009946DDE90A6704F0FF0A08EB04001FFA77
:1056100080F809EB05001FFA80F916E0444502DB2B
:105620005446A81985B24D4500DB14E001200090D6
:105630003A78334629462046FFF726FE304606EBE9
:10564000D07104EB61018CB27F1C38787E2802DCBB
:1056500038782028E2DA00BFBDE8F88F2DE9FF4F47
:1056600082B0064692461F46DDE90F4800200190B1
:1056700000254DE0781B401EC1B20A20FFF7FCFC5C
:10568000BAFBF0F00A21B0FBF1F201FB120901981C
:1056900050BB781EA84227DDB9F1000F22D108F0D7
:1056A000800078B108F00100A34604EBDB714910DB
:1056B00001FB0561009088B2234630220399FFF771
:1056C0004FFD0EE008F00100A34604EBDB7149102A
:1056D00001FB0561009088B2234620220399FFF761
:1056E0003FFD13E00120019008F00100A34604EB08
:1056F000DB71491001FB0561009088B209F13001AE
:10570000CAB223460399FFF72BFD00BF681CC5B240
:10571000BD42AFDB06B0BDE8F08F00000149088054
:1057200070470000FE07006C0149088070470000C8
:105730000008006C01490880704700000008006CF8
:1057400008B50121102000F001F9FF20ADF800009C
:1057500010208DF8030003208DF8020069460448EC
:10576000FEF70EF8FF210248FEF7A0F808BD000082
:105770000010014038B50021012000F02DFC002070
:10578000FEF720FEFFF7DCFF4FF6E0702A490880A5
:105790002AA20A210846FFF709FE2B482B4A00904F
:1057A00052881E3A91B2294A1288283A90B21E2392
:1057B0002822FFF7BFFE3CE00A2C03DCFF2124482F
:1057C000FEF774F8142C05DB282C03DAFF2120489F
:1057D000FEF76AF8282C00DB00240A2003F016F9F3
:1057E000601CC4B21B488188184800882838814250
:1057F0001DDD1848808815490988884217DA154840
:10580000C188124840881E38814210DD1148C08886
:105810000E49498888420ADAFF210D48FEF746F80A
:10582000FEF7F4FD0121084600F0D6FB02E002F08D
:1058300085F8C1E700BF38BD140000204C4544B5D1
:10584000C6B2E2CAD4000000F45C020818000020CE
:10585000001001402C00002000BFFEE77047000050
:1058600070B5002100230F22C47804B3154C2468BE
:1058700004F4E064C4F5E064210AC1F10403CA4001
:10588000447804FA03F184781440214309010E4C52
:105890000678A155047804F01F050124AC40057872
:1058A0006D11AD0005F1E025C5F8004109E004786F
:1058B00004F01F050124AC40044D0678761145F82C
:1058C000264070BD0CED00E000E400E080E100E067
:1058D00002490143024A1160704700000000FA05C6
:1058E0000CED00E0014908627047000000000E4224
:1058F0007047000001460020034A506820F44040F1
:1059000008435060704700000010024029B1064A69
:1059100052690243044B5A6104E0034A52698243CC
:10592000014B5A61704700000010024029B1064A3D
:10593000D2690243044BDA6104E0034AD26982432C
:10594000014BDA61704700000010024029B1064A9D
:1059500092690243044B9A6104E0034A92698243CC
:10596000014B9A6170470000001002400149086035
:10597000704700004004424230B50021002200245C
:1059800000232D4D6D6805F00C0121B1042905D0CF
:10599000082923D105E0294D056022E0274D056047
:1059A0001FE0254D6D6805F47012234D6D6805F4F8
:1059B0008034022505EB92421CB9214D5543056008
:1059C0000BE01D4D6D6805F400351DB11C4D5543B0
:1059D000056002E0194D5543056002E0174D056072
:1059E00000BF00BF144D6D6805F0F0010909154DA9
:1059F0006B5C0568DD4045600F4D6D6805F4E06146
:105A0000090A104D6B5C4568DD4085600A4D6D6884
:105A100005F46051C90A0B4D6B5C4568DD40C560FB
:105A2000054D6D6805F44041890B074D6B5CC568F9
:105A3000B5FBF3F5056130BD0010024000127A009D
:105A400000093D00000000201000002010B50146B4
:105A50000022002300204A11012A02D1094C2368A8
:105A600006E0022A02D1074C236A01E0054C636A72
:105A700001F01F02012494401C400CB1012000E001
:105A8000002010BD0010024000210B4A11700A4A8C
:105A9000203A82F82010012802D0042808D103E01F
:105AA0000121054A117004E00521034A117000E04C
:105AB00000BF00BF7047000020100240014908608D
:105AC000704700003C0442420249096A0143014A0E
:105AD000116270470010024010B586B004460121E3
